:04000000E0EF0DF030
:10100000003738392F3435362A3132332D23303DED
:101010002B50415353574F524400434F5252454374
:10102000540057524F4E47002020200025690049A8
:031030005300006A
:10103400F4EC0DF02A0E3C6E4F0E3D6E63EC0AF09C
:10104400380E4F18D8A429EF08F02BEF08F07BEFE7
:1010540008F0340E3C6E73EC0DF0330E3C6E5CEC19
:101064000DF0320E3C6E2AEC0DF0200E486E110E7F
:10107400496E020E4A6E010E4B6EEBEC0CF0200E24
:10108400486E2F0E496E020E4A6E0A0E4B6EEBEC42
:101094000CF0200E486E1A0E496E020E4A6E0D0EAA
:1010A4004B6EEBEC0CF0200E3E6E1C0E3F6EE8EC2B
:1010B4000BF0020E4E6E860E4D6E990EE82EFED784
:1010C4004D2EFCD74E2EFAD70000200E3E6E180E81
:1010D4003F6EE8EC0BF0020E4E6E860E4D6E990ECE
:1010E400E82EFED74D2EFCD74E2EFAD700001CEF6B
:1010F40008F04F50D8A481EF08F083EF08F085EF93
:1011040008F01CEF08F0330E3C6E73EC0DF0340E57
:101114003C6E5CEC0DF0320E3C6E43EC0DF0200E98
:10112400486E280E496E020E4A6E110E4B6EEBECA1
:101134000CF0200E486E110E496E020E4A6E010E1E
:101144004B6EEBEC0CF0200E486E2F0E496E020E27
:101154004A6E0A0E4B6EEBEC0CF0200E486E220E1B
:10116400496E020E4A6E0D0E4B6EEBEC0CF055EF11
:1011740008F000EF00F03550D8B4C3EF08F0C5EF25
:1011840008F0E3EF08F03550D96EDA6ADF30E83260
:10119400E832070B366E080E3660D3EF08F0D5EF51
:1011A40008F0E3EF08F03550D96EDA6ADF50070B28
:1011B400366E040E3664E1EF08F0E3EF08F038EF22
:1011C40009F04EEF09F03550D96EDA6ADF30E832B3
:1011D400E832070B366E010E376E362AF4EF08F04C
:1011E400D8903736362EF2EF08F03550D96EDA6AD9
:1011F400DF50070B020DF350150FD96EDA6ADECFFC
:1012040038F0DDCF39F038C0D9FF39C0DAFF3750B4
:10121400DF12E3EF08F03550D96EDA6ADF30E832D6
:10122400E832070B366E010E376E362A1CEF09F0D2
:10123400D8903736362E1AEF09F03750FF0A386E39
:101244003550D96EDA6ADF50070B020DF350150FD3
:10125400D96EDA6ADECF39F0DDCF3AF039C0D9FF82
:101264003AC0DAFF3850DF16E3EF08F03550D96E94
:10127400DA6ADFBC40EF09F043EF09F0010E44EFF6
:1012840009F0000E000AD8B40DEF09F0010AD8B431
:10129400E5EF08F0E3EF08F0010E12003550D8B482
:1012A40056EF09F058EF09F076EF09F03550D96E92
:1012B400DA6ADF30E832E832070B376E080E37603F
:1012C40066EF09F068EF09F076EF09F03550D96E52
:1012D400DA6ADF50070B376E040E376474EF09F0D7
:1012E40076EF09F0CBEF09F0E0EF09F03550D96E55
:1012F400DA6ADF30E832E832070B376E010E386EF7
:10130400372A87EF09F0D8903836372E85EF09F061
:101314003850FF0A396E3550D96EDA6ADF50070B40
:10132400020DF350010FD96EDA6ADECF3AF0DDCF49
:101334003BF03AC0D9FF3BC0DAFF3950DF1676EFF5
:1013440009F03550D96EDA6ADF30E832E832070B3B
:10135400376E010E386E372AB2EF09F0D89038365E
:10136400372EB0EF09F03550D96EDA6ADF50070B2B
:10137400020DF350010FD96EDA6ADECF39F0DDCFFA
:101384003AF039C0D9FF3AC0DAFF3850DF1276EFAD
:1013940009F03650376E386A3850000AD8B4D5EFA1
:1013A40009F076EF09F03750000AD8B478EF09F065
:1013B400010AD8B4A3EF09F076EF09F0010E120088
:1013C4004450D8A4E8EF09F0EAEF09F0ECEF09F093
:1013D40062EF0AF044C03CF071EC0BF0486E442814
:1013E4003C6E71EC0BF04816000E476E44504724D7
:1013F400020F3C6E71EC0BF04816472A070E476447
:1014040006EF0AF008EF0AF0F8EF09F0030E466E53
:10141400080E456E770EE82EFED7452EFCD7462ED5
:10142400FAD7000044C03EF0380E3F6EE8EC0BF0F3
:101434004816820E456EDE0EE82EFED7452EFCD7EA
:1014440044C03EF0380E3F6EE8EC0BF04816040E34
:10145400456EE40EE82EFED7452EFCD700D044C0DE
:101464003EF0380E3F6EE8EC0BF0481644C03EF0F8
:10147400010E3F6EE8EC0BF0481644C03EF0020E3D
:101484003F6EE8EC0BF0481644C03EF0060E3F6E8B
:10149400E8EC0BF0481644C03EF00C0E3F6EE8EC4E
:1014A4000BF0481644C03EF0380E3F6EE8EC0BF0EB
:1014B400481644C03EF0800E3F6EE8EC0BF0481630
:1014C40012003C50D8B469EF0AF06BEF0AF073EFE6
:1014D4000AF03D50D8A471EF0AF073EF0AF075EFEB
:1014E4000AF0D0EF0AF0010E3F6E000E406E000EBF
:1014F400426E000E416E000E426E000E416E3C5074
:101504004124356E000E366E50EC09F03F16412A28
:10151400030E416490EF0AF092EF0AF081EF0AF0B3
:101524003C504224356E010E366E50EC09F03F16E5
:10153400000E436E3C504324040F356E400E366E4D
:10154400D1EC0AF03F164004D8A4ABEF0AF0ADEF9B
:101554000AF0BEEF0AF04250040DF350010F432489
:101564003E6E3EC0F6FF100EF76EF86A3D50D96E1F
:10157400DA6A0800F5CFDFFF432A030E4364C5EFA0
:101584000AF0C7EF0AF09CEF0AF0422A030E426405
:10159400CEEF0AF0D0EF0AF07FEF0AF012003550D8
:1015A400D8B4D7EF0AF0D9EF0AF0FFEF0AF03650BB
:1015B400D8B4DFEF0AF0E1EF0AF0FFEF0AF035509C
:1015C400D96EDA6ADF30E832E832070B376E080E7C
:1015D4003760EFEF0AF0F1EF0AF0FFEF0AF0355051
:1015E400D96EDA6ADF50070B376E040E3764FDEFED
:1015F4000AF0FFEF0AF001EF0BF02BEF0BF036507F
:10160400D96EDA6A3550E16EE26AE730E832E832E0
:10161400070B376E3550E16EE26AE750070B020D97
:10162400F3500B0FE16EE26AE6CF38F0E5CF39F004
:1016340038C0E1FF39C0E2FFE7503A6E372A25EFA0
:101644000BF0D8903A32372E23EF0BF03A50010BBF
:10165400DF6E010E120046065CEF0BF044C03EF054
:101664004650800F3F6EE8EC0BF0476E6FEF0BF0C7
:1016740044C03EF04650C00F3F6EE8EC0BF0476E9E
:101684006FEF0BF044C03EF04650940F3F6EE8EC11
:101694000BF0476E6FEF0BF044C03EF04650D40F92
:1016A4003F6EE8EC0BF0476E6FEF0BF0010E476EE8
:1016B4006FEF0BF04550010AD8B430EF0BF0030A7A
:1016C400D8B43AEF0BF0010AD8B444EF0BF0070A90
:1016D400D8B44EEF0BF058EF0BF0475012003C50CB
:1016E400D8B477EF0BF079EF0BF097EF0BF03C5099
:1016F400D96EDA6ADF30E832E832070B3D6E080E45
:101704003D6087EF0BF089EF0BF097EF0BF03C5047
:10171400D96EDA6ADF50070B3D6E040E3D6495EF17
:101724000BF097EF0BF09BEF0BF0010E3E6EACEF5E
:101734000BF03CC035F0BDEC08F03E6E3CC035F01B
:101744003C50D96EDA6A000EDFBE010E366E50ECE4
:1017540009F03E163E5012003E50D8A4B4EF0BF0F0
:10176400B6EF0BF0BAEF0BF0010E426EE6EF0BF0A2
:101774003EC035F0010E366E50EC09F0426E000E9C
:10178400436E3E504324020F356E43C040F03FC0C9
:1017940041F0402AD0EF0BF0D8904132402ECEEFEA
:1017A4000BF04150010B366E50EC09F04216432AFF
:1017B400070E4364E0EF0BF0E2EF0BF0C3EF0BF026
:1017C4003EC03CF0CBEC0DF0425012003E50D8A489
:1017D400EEEF0BF0F0EF0BF0F4EF0BF0010E426EB6
:1017E40020EF0CF03EC035F0000E366E50EC09F0E0
:1017F400426E000E436E3E504324020F356E43C0CA
:1018040040F03FC041F0402A0AEF0CF0D89041323A
:10181400402E08EF0CF04150010B366E50EC09F0ED
:101824004216432A070E43641AEF0CF01CEF0CF027
:10183400FDEF0BF03EC03CF0CBEC0DF0425012003B
:10184400010E466E4450D8A42AEF0CF02CEF0CF095
:1018540046EF0CF04550D8A432EF0CF034EF0CF006
:1018640046EF0CF0010E466E55EF0CF044C03EF00E
:1018740045C0F6FF100EF76EF86A0800F5CF3FF08A
:10188400AEEC0BF04616452A45C0F6FF100EF76E77
:10189400F86A0800F5500009D8A453EF0CF055EF8E
:1018A4000CF038EF0CF0465012003F50D8A45DEF16
:1018B4000CF05FEF0CF061EF0CF088EF0CF0010E10
:1018C400406E000E416E000E416E3F5041243C6E4E
:1018D40071EC0BF04016412A030E416474EF0CF0D6
:1018E40076EF0CF067EF0CF0000E426E3F5042248E
:1018F400040F3C6E71EC0BF04016422A030E426456
:1019040086EF0CF088EF0CF078EF0CF012003650F4
:10191400D96EDA6ADF50070B376E3550D96EDA6A42
:10192400DF503718F80B3718DF6E3650D96EDA6A85
:10193400DF30E832E832070B376E3550D96EDA6A99
:10194400374637463746DF503718C70B3718DF6E30
:101954003550D96EDA6ADF9C3650D96EDA6A355062
:10196400E16EE26AE79EDFACB9EF0CF0E78E12009D
:101974003550D96EDA6ADF9C3650D96EDA6A355042
:10198400E16EE26AE79EDFACC9EF0CF0E78E3650F9
:10199400D96EDA6ADF30E832E832070B376E355039
:1019A400D96EDA6A374637463746DF503718C70BE1
:1019B4003718DF6E3650D96EDA6ADF50070B376E90
:1019C4003550D96EDA6ADF503718F80B3718DF6EE6
:1019D4001200010E4C6E4850D8A4F3EF0CF0F5EF52
:1019E4000CF0FFEF0CF04950D8A4FBEF0CF0FDEF26
:1019F4000CF0FFEF0CF00FEF0DF048C044F04AC0BC
:101A040045F04BC046F02DEC0BF04C1648C044F0AA
:101A140049C045F022EC0CF04C161200890F8A0FD5
:101A24008B0F8C0F8D0F800F810F820F830F840F0C
:101A3400920F930F940F950F960F381B23010911E2
:101A44001921293139020A121A626A727A130B03B4
:101A54003C50D8A430EF0DF032EF0DF034EF0DF020
:101A640042EF0DF03D0E356E3CC036F0BAEC0CF092
:101A74003D0E356E010E366E50EC09F032EF0DF06E
:101A840012003C50D8A449EF0DF04BEF0DF04DEF90
:101A94000DF05BEF0DF03D0E356E3CC036F0BAEC48
:101AA4000CF03D0E356E000E366E50EC09F04BEF27
:101AB4000DF012003C50D8A462EF0DF064EF0DF06D
:101AC40066EF0DF072EF0DF03D0E356E3CC036F052
:101AD40089EC0CF03D0E356E010E366E50EC09F0BB
:101AE40012003C50D8A479EF0DF07BEF0DF07DEFA0
:101AF4000DF089EF0DF03D0E356E3CC036F089ECEB
:101B04000CF03D0E356E000E366E50EC09F01200EE
:101B14003F50D8A490EF0DF092EF0DF094EF0DF03C
:101B2400A0EF0DF0400E356E3FC036F0BAEC0CF06D
:101B3400400E3C6E71EC0BF092EF0DF012002A0E89
:101B44003F6E57EC0CF0340E3F6EB6EC0DF0330ED6
:101B54003F6EB6EC0DF0200E446EE2EC09F0320E4E
:101B64003F6E8AEC0DF012003F50D8A4BCEF0DF08C
:101B7400BEEF0DF0C0EF0DF0CAEF0DF0400E356E64
:101B84003FC036F089EC0CF0400E3C6E71EC0BF06B
:101B94001200010E3D6E3C28356E010E366E50EC7F
:101BA40009F03D16210EE82EFED700003C28356EC4
:101BB400000E366E50EC09F03D161200200EF66E43
:101BC4001A0EF76E000EF86E00EE01F010EE34F00F
:101BD4000900F5CFEEFFE550E150FAE14F6A00014C
:0A1BE4001AEF08F0A1EC0DF012005A
:00000001FF
